:10000000020355C0E0C083C082C09130980BD20279
:10001000900009E599F05398FED091D082D083D01A
:02002000E032CC
:1000230002000375910253F60F43F6607591015375
:10003300C2FD53C3FD9000047402F0A312016B00D0
:1000430001C2007F707E407D8B7C0012019C43982F
:0B00530002D20022C100C101C1020066
:1000630002044BEF14600A04700DE4F591539BFBFB
:1000730022E4F591439B042202048F75F0087582F4
:1000830000EF2FFFEE33FECD33CDCC33CCC582331F
:10009300C5829BED9AEC99E58298400CF582EE9B24
:1000A300FEED9AFDEC99FC0FD5F0D6E4CEFBE4CD42
:1000B300FAE4CCF9A88222B800C1B90059BA002DDC
:1000C300EC8BF084CFCECDFCE5F0CBF97818EF2F95
:1000D300FFEE33FEED33FDEC33FCEB33FB10D703C4
:1000E300994004EB99FB0FD8E5E4F9FA227818EF6D
:1000F3002FFFEE33FEED33FDEC33FCC933C910D7CC
:10010300059BE99A4007EC9BFCE99AF90FD8E0E4D8
:10011300C9FAE4CCFB2275F010EF2FFFEE33FEEDAE
:1001230033FDCC33CCC833C810D7079BEC9AE8997E
:10013300400AED9BFDEC9AFCE899F80FD5F0DAE460
:10014300CDFBE4CCFAE4C8F922E8600FECC313FC5E
:10015300ED13FDEE13FEEF13FFD8F122ECF0A3ED48
:10016300F0A3EEF0A3EFF022A8828583F0D083D032
:1001730082120182120182120182120182E473E46B
:1001830093A3C583C5F0C583C8C582C8F0A3C5833F
:10019300C5F0C583C8C582C82290000012015F90D4
:1001A3000004E024FE605714606724FD600A1460B5
:1001B300602406600302028DE4F59175985043892B
:1001C30020438780F591438E10F59153C4DF7B1054
:1001D300FAF9F8900000E0FCA3E0FDA3E0FEA3E041
:1001E300FF1200BA900005E0F8A3E0F9A3E0FAA338
:1001F300E0FB1200BAEFF404F58D43884022E4F5E6
:100203009175985043878053C4F8F59143C4208077
:1002130009E4F59175F85075C4887B10FAF9F890E4
:100223000000E0FCA3E0FDA3E0FEA3E0FF1200BAA0
:10023300900005E0F8A3E0F9A3E0FAA3E0FB1200C5
:10024300BAC3E49FFFE49EFE74019DFDE49CFC7829
:100253000812014C8FC6E47B10FAF9F8900000E015
:10026300FCA3E0FDA3E0FEA3E0FF1200BA900005AB
:10027300E0F8A3E0F9A3E0FAA3E0FB1200BAC3E4B9
:100283009FFFE48FC5F59143C40822E4F59153C958
:100293000F900003E0C454F042C943C980EF1460D7
:1002A3003A14606F2402600302034E759103538E68
:1002B300FCED428E75910153E2FCEB42E275910134
:1002C30043E31075910143E110E4F59153C9FC43F5
:1002D300C901759101F5E5F5E48070759103538EBD
:1002E300F3ED25E025E0428E75910153E2F3EB2512
:1002F300E025E042E275910143E32075910143E17A
:1003030020E4F59153C9FC43C902759101F5E7F562
:10031300E68038759103538ECFAF05EFC454F04296
:100323008E75910153E2CFAF03EFC454F042E275EF
:10033300910143E34075910143E140E4F59153C9D1
:10034300FC43C903759101F5EEF5ED53C87F43C82E
:100353000422787FE4F6D8FD9000007FFF7E10E44E
:10036300F0A3DFFCDEFA7581200203AA0203EFE4A7
:1003730093A3F8E493A34003F68001F208DFF4802B
:1003830029E493A3F85407240CC8C333C4540F447B
:1003930020C8834004F456800146F6DFE4800B0155
:1003A30002040810204080900057E47E019360BC53
:1003B300A3FF543F30E509541FFEE493A360010EED
:1003C300CF54C025E060A840B8E493A3FAE493A314
:1003D300F8E493A3C8C582C8CAC583CAF0A3C8C535
:1003E30082C8CAC583CADFE9DEE780BE120026756C
:1003F300910253F70F43F7D075910143C20853C3DA
:10040300F77591014395089000037402F07B01E4B2
:10041300FDFF12028E75910253FD0F43FDD07591BE
:100423000143B30253B4FD7591014393029000035A
:100433007407F07B02E4FD7F0212028E7F0112003B
:10044300667F011204B580FEC0E0C0D075D000C045
:1004530006C007C091759101E5E130E00CAEE5AF50
:10046300E475910153E1FE800FE5E130E20AAEEE5F
:10047300AFED75910153E1FB75910075910153E166
:10048300BFD091D007D006D0D0D0E032C0E0C08337
:10049300C082C09130F80AD20390000AE59AF0C2F4
:1004A300F830F905200102C2F9D091D082D083D06F
:0804B300E032EF24FF92AF22BA
:00000001FF
